:100000000C942A000C94B5080C9447000C94C50875
:100010000C9447000C9447000C9447000C94470044
:100020000C9447000C9447000C9447000C94470034
:100030000C9447000C9447000C9447000C94470024
:100040000C94F30E0C9447000C9447000C9447005A
:100050000C94470011241FBECFE5D8E0DEBFCDBF12
:1000600010E0A0E6B0E0E8E8F1E402C005900D92EF
:10007000AA38B107D9F710E0AAE8B0E001C01D9294
:10008000A63FB107E1F70E94121F0C94C2200C9406
:100090000000EF92FF920F931F937B018C0120E0F1
:1000A00030E040E05FE40E94F50388238CF0C80153
:1000B000B70120E030E040E05FE40E94C1010E940F
:1000C00055049B01AC01205030404040504806C0D0
:1000D000C801B7010E9455049B01AC01B901CA01D6
:1000E0001F910F91FF90EF900895A0E0B0E0EBE733
:1000F000F0E00C948B20DC012B01FA019C919230F2
:1001000008F439C1EB018881823008F433C194309E
:1001100069F4843009F02FC111969C91119789815F
:10012000981709F428C1A0E6B0E025C1843009F48D
:1001300021C18230A9F4923009F01DC19A01AD01AC
:1001400088E0EA010990AE01E90109929E0181501F
:10015000C1F7E201898111969C918923818308C1AD
:10016000923009F407C112962D903C901397EB0141
:100170008A819B811496AD90BD90CD90DC901797AD
:10018000EC80FD800E811F819101281B390BB90184
:1001900037FF04C066277727621B730B6032710537
:1001A0000CF061C0121613066CF537014801062EDB
:1001B00004C096948794779467940A94D2F721E0C8
:1001C00030E040E050E004C0220F331F441F551FB1
:1001D0006A95D2F721503040404050402E213F21B7
:1001E00040235123211531054105510521F021E01E
:1001F00030E040E050E079018A01E628F72808293C
:1002000019293CC0232BD1F1260E371E350146019A
:10021000062E04C096948794779467940A94D2F734
:1002200021E030E040E050E004C0220F331F441FC3
:10023000551F6A95D2F721503040404050402A2146
:100240003B214C215D21211531054105510521F04E
:1002500021E030E040E050E059016A01A628B728CB
:10026000C828D9280BC0821593052CF01C01AA249C
:10027000BB24650103C0EE24FF24870111969C91E5
:10028000D20111968C91981709F445C0992339F041
:10029000A80197012A193B094C095D0906C0A6016E
:1002A00095012E193F09400B510B57FD08C01182D3
:1002B0003382228224833583468357831DC081E0A5
:1002C00081833382228288279927DC01821B930B4A
:1002D000A40BB50B84839583A683B7830DC0220F2F
:1002E000331F441F551F24833583468357838281E0
:1002F000938101979383828324813581468157813D
:10030000DA01C9010197A109B1098F5F9F4FAF4F72
:10031000BF4328F30BC0918333822282EA0CFB1C7B
:100320000C1D1D1DE482F5820683178383E0808304
:10033000248135814681578157FF1AC0C901AA27F8
:1003400097FDA095BA2F81709070A070B0705695EF
:10035000479537952795822B932BA42BB52B848318
:100360009583A683B7838281938101969383828349
:10037000DF0101C0D201CD01CDB7DEB7E2E10C94BF
:10038000A720A0E2B0E0E7ECF1E00C9497206983AD
:100390007A838B839C832D833E834F835887E9E048
:1003A000EE2EF12CEC0EFD1ECE010196B7010E943F
:1003B0007E058E010F5E1F4FCE010596B8010E948B
:1003C0007E058A8991E089278A8BC701B801AE0131
:1003D000475E5F4F0E9475000E94A904A096E6E068
:1003E0000C94B320A0E2B0E0E8EFF1E00C94972089
:1003F00069837A838B839C832D833E834F835887C5
:10040000F9E0EF2EF12CEC0EFD1ECE010196B701A6
:100410000E947E058E010F5E1F4FCE010596B8012A
:100420000E947E05C701B801AE01475E5F4F0E9482
:1004300075000E94A904A096E6E00C94B320A0E207
:10044000B0E0E5E2F2E00C948B2069837A838B8341
:100450009C832D833E834F835887CE010196BE0136
:10046000675F7F4F0E947E05CE010596BE016F5EDD
:100470007F4F0E947E059985923088F0898982306D
:10048000C8F0943019F4823051F404C0843029F457
:10049000923081F480E690E0C6C0923049F420E0CA
:1004A0009A858A89981321E02A87CE010996BBC0D4
:1004B000823049F420E09A858A89981321E02A8BBA
:1004C000CE014196B0C02D843E844F8458886D88FB
:1004D0007E888F88988CEE24FF248701AA24BB2471
:1004E000650140E050E060E070E0E0E0F0E0C10174
:1004F00081709070892BE9F0E60CF71C081D191D1E
:100500009A01AB012A0D3B1D4C1D5D1D80E090E062
:10051000A0E0B0E0E614F7040805190520F481E036
:1005200090E0A0E0B0E0BA01A901480F591F6A1F8E
:100530007B1FAA0CBB1CCC1CDD1C97FE08C081E0F5
:1005400090E0A0E0B0E0A82AB92ACA2ADB2A3196B6
:10055000E032F10549F0660C771C881C991C569412
:10056000479437942794C3CFFA85EA892B893C892D
:100570008B859C85280F391F2E5F3F4F17C0CA01FE
:1005800081709070892B61F016950795F794E79428
:1005900080E090E0A0E0B0E8E82AF92A0A2B1B2BC3
:1005A00076956795579547952F5F3F4F77FDE7CF36
:1005B0000CC0440F551F661F771F17FD4160EE0CDE
:1005C000FF1C001F111F21503040403090E05907A0
:1005D00090E0690790E4790760F32B8F3C8FDB0193
:1005E000CA018F779070A070B07080349105A1051A
:1005F000B10561F447FD0AC0E114F10401051105DC
:1006000029F0405C5F4F6F4F7F4F40781A8EFE1786
:1006100011F081E08A8F4D8F5E8F6F8F78A383E01A
:10062000898FCE0149960E94A904A096E2E10C941C
:10063000A720A8E1B0E0EFE1F3E00C9493206983F8
:100640007A838B839C832D833E834F835887B9E0C5
:10065000EB2EF12CEC0EFD1ECE010196B7010E948F
:100660007E058E010F5E1F4FCE010596B8010E94D8
:100670007E052985223008F47EC03989323010F495
:10068000B8017CC08A859A8989278A87243011F02D
:10069000223031F4231709F06EC060E670E06EC0BE
:1006A000343039F41D861E861F86188A1C861B86E8
:1006B00004C0323021F484E08987B7015FC02B8504
:1006C0003C858B899C89281B390B3C872B87ED84C3
:1006D000FE840F851889AD88BE88CF88D88CEA142F
:1006E000FB040C051D0540F4EE0CFF1C001F111F40
:1006F000215030403C872B8720E030E040E050E044
:1007000080E090E0A0E0B0E460E070E0EA14FB0478
:100710000C051D0540F0282B392B4A2B5B2BEA18C2
:10072000FB080C091D09B695A79597958795EE0CC2
:10073000FF1C001F111F6F5F7F4F6F31710531F775
:10074000DA01C9018F779070A070B0708034910584
:10075000A105B10561F427FD0AC0E114F10401050A
:10076000110529F0205C3F4F4F4F5F4F20782D87B8
:100770003E874F87588BBE01675F7F4FCB010E943A
:10078000A9046896EAE00C94AF20A8E1B0E0EBEC95
:10079000F3E00C94972069837A838B839C832D8369
:1007A0003E834F83588789E0E82EF12CEC0EFD1E26
:1007B000CE010196B7010E947E058E010F5E1F4F8C
:1007C000CE010596B8010E947E058985823040F0F1
:1007D0008989823028F0C701B8010E94F60501C05E
:1007E0008FEF6896E6E00C94B320A8E1B0E0EBEF61
:1007F000F3E00C94972069837A838B839C832D8309
:100800003E834F83588789E0E82EF12CEC0EFD1EC5
:10081000CE010196B7010E947E058E010F5E1F4F2B
:10082000CE010596B8010E947E058985823040F090
:100830008989823028F0C701B8010E94F60501C0FD
:100840008FEF6896E6E00C94B320A8E1B0E0EBE20D
:10085000F4E00C94972069837A838B839C832D83A7
:100860003E834F83588789E0E82EF12CEC0EFD1E65
:10087000CE010196B7010E947E058E010F5E1F4FCB
:10088000CE010596B8010E947E058985823040F030
:100890008989823028F0C701B8010E94F60501C09D
:1008A00081E06896E6E00C94B320ACE0B0E0EBE5C4
:1008B000F4E00C949B2069837A838B839C83CE0124
:1008C0000196BE016B5F7F4F0E947E058D81823055
:1008D00061F1823050F1843021F48E81882351F10E
:1008E0002EC02F81388537FD20C06E812F31310514
:1008F0001CF06623F9F023C08EE190E0821B930B7D
:1009000029853A854B855C8504C056954795379572
:1009100027958A95D2F76623B1F05095409530958A
:1009200021953F4F4F4F5F4F0EC020E030E040E039
:1009300050E009C02FEF3FEF4FEF5FE704C020E02A
:1009400030E040E050E8B901CA012C96E2E00C9496
:10095000B720DF92EF92FF920F931F93FC01E48088
:10096000F58006811781D1808081823048F480E053
:1009700090E0A0E1B0E0E82AF92A0A2B1B2BA5C0E1
:10098000843009F49FC0823021F4EE24FF248701D3
:1009900005C0E114F1040105110519F4E0E0F0E0EF
:1009A00096C0628173819FEF623879070CF05BC05B
:1009B00022E83FEF261B370B2A3131052CF020E0CF
:1009C00030E040E050E02AC0B801A701022E04C088
:1009D00076956795579547950A94D2F781E090E010
:1009E000A0E0B0E004C0880F991FAA1FBB1F2A9582
:1009F000D2F70197A109B1098E219F21A023B1232C
:100A00000097A105B10521F081E090E0A0E0B0E001
:100A10009A01AB01282B392B4A2B5B2BDA01C90138
:100A20008F779070A070B07080349105A105B105EA
:100A300039F427FF09C0205C3F4F4F4F5F4F04C080
:100A4000215C3F4F4F4F5F4FE0E0F0E02030A0E0EF
:100A50003A07A0E04A07A0E45A0710F0E1E0F0E00E
:100A600079018A0127C06038710564F5FB01E158FE
:100A7000FF4FD801C7018F779070A070B07080349D
:100A80009105A105B10539F4E7FE0DC080E490E0C1
:100A9000A0E0B0E004C08FE390E0A0E0B0E0E80E9A
:100AA000F91E0A1F1B1F17FF05C016950795F7941F
:100AB000E794319687E016950795F794E7948A9521
:100AC000D1F705C0EE24FF248701EFEFF0E06E2F91
:100AD000679566276795902F9F77D794DD24D794E5
:100AE0008E2F8695492F462B582F5D29B701CA01B5
:100AF0001F910F91FF90EF90DF900895FC01DB01B3
:100B0000408151812281622F6F7770E0221F22275E
:100B1000221F9381892F880F822B282F30E0991F65
:100B20009927991F11969C93119721153105A9F5C5
:100B3000411551056105710511F482E037C082E865
:100B40009FEF13969C938E9312979A01AB0167E0E7
:100B5000220F331F441F551F6A95D1F783E08C93F2
:100B60000DC0220F331F441F551F12968D919C916B
:100B70001397019713969C938E931297203080E0E1
:100B8000380780E0480780E4580758F314962D93FF
:100B90003D934D935C93179708952F3F310579F45A
:100BA000411551056105710519F484E08C93089590
:100BB00064FF03C081E08C9312C01C9210C02F57B9
:100BC000304013963C932E93129783E08C9387E0EA
:100BD000440F551F661F771F8A95D1F770641496CE
:100BE0004D935D936D937C93179708951F93DC014C
:100BF000FB019C91923008F447C08081823008F458
:100C000043C0943051F411961C91843099F5818140
:100C1000682F70E0611B71093FC0843021F0923071
:100C200031F48230B9F18181882389F12DC0119688
:100C30001C9111978230F1F081811817D9F4129626
:100C40002D913C911397828193818217930794F0A1
:100C500028173907BCF014968D919D910D90BC9189
:100C6000A02D2481358146815781281739074A07ED
:100C70005B0718F4112341F00AC082179307A407F9
:100C8000B50740F4112319F061E070E005C06FEF83
:100C90007FEF02C060E070E0CB011F910895DF9309
:100CA000CF930F92CDB7DEB78983A1E4B0E0E1E442
:100CB000F0E0808188608C93A1E4B0E0E1E4F0E0B2
:100CC00090818981892B8C930F90CF91DF9108952A
:100CD000DF93CF93CDB7DEB7CF91DF910895DF9348
:100CE000CF93CDB7DEB7E1E4F0E088E18083E1E4C3
:100CF000F0E01082CF91DF910895DF93CF93CDB7CD
:100D0000DEB783E060E040E00E94430A83E061E0F8
:100D100041E00E94430AE9E2F0E083E38083E0E4FB
:100D2000F0E01082EBE2F0E01082EAE2F0E088E12D
:100D30008083E0E4F0E086E88083CF91DF9108953E
:100D4000DF93CF930F92CDB7DEB78983ECE2F0E06B
:100D500089818083EBE2F0E08081829586958770BF
:100D6000882F90E0817090700097A1F3ABE2B0E023
:100D7000EBE2F0E0808180648C930F90CF91DF9163
:100D80000895DF93CF93CDB7DEB7EBE2F0E080813B
:100D90008823DCF7ECE2F0E08081CF91DF910895C9
:100DA000DF93CF9300D00F92CDB7DEB79B838A83BA
:100DB000198219820EC08981282F30E08A819B8197
:100DC000FC01E20FF31F80810E94A00689818F5FE2
:100DD00089838981282F30E08A819B81FC01E20F81
:100DE000F31F8081882339F70F900F900F90CF91D8
:100DF000DF910895EF92FF920F931F93DF93CF93AC
:100E0000CDB7DEB72C970FB6F894DEBF0FBECDBFBF
:100E100069877A878B879C8781E090E0A0E0B0E0CB
:100E20008D839E83AF83B88781E090E0A0E0B0E03F
:100E300089839A83AB83BC8389859A85AB85BC857E
:100E40000097A105B10519F480E30E94A0068985E9
:100E50009A85AB85BC858A309105A105B10528F43A
:100E60008985805D0E94A00607C189859A85AB852A
:100E7000BC858A309105A105B10539F481E30E9452
:100E8000A00680E30E94A006F7C089859A85AB85FD
:100E9000BC858B309105A105B10508F44BC089854F
:100EA0009A85AB85BC8584369105A105B10508F00E
:100EB00041C089859A85AB85BC852AE030E040E059
:100EC00050E0BC01CD010E946920DC01CB018D8383
:100ED0009E83AF83B88729853A854B855C858D8154
:100EE0009E81AF81B88579018A01E81AF90A0A0B57
:100EF0001B0BD801C70189879A87AB87BC87898577
:100F00009A85AB85BC852AE030E040E050E0BC012A
:100F1000CD010E946920DA01C90189879A87AB87D0
:100F2000BC878985805D0E94A0068D81805D0E94BE
:100F3000A006A2C089859A85AB85BC8584369105BB
:100F4000A105B10508F498C089859A85AB85BC8553
:100F50002AE030E040E050E0BC01CD010E94692071
:100F6000DC01CB018D839E83AF83B88729853A85C9
:100F70004B855C858D819E81AF81B88579018A0121
:100F8000E81AF90A0A0B1B0BD801C70189879A874F
:100F9000AB87BC8789859A85AB85BC8524E630E024
:100FA00040E050E0BC01CD010E946920DC01CB0192
:100FB00089839A83AB83BC8329853A854B855C857D
:100FC00089819A81AB81BC8179018A01E81AF90A89
:100FD0000A0B1B0BD801C70189879A87AB87BC878F
:100FE00089859A85AB85BC8524E630E040E050E0F9
:100FF000BC01CD010E946920DA01C90189879A8765
:10100000AB87BC878985805D0E94A00689819A8113
:10101000AB81BC818A309105A105B10528F1898198
:101020009A81AB81BC812AE030E040E050E0BC0115
:10103000CD010E946920DC01CB010097A105B1051B
:1010400099F489819A81AB81BC812AE030E040E04B
:1010500050E0BC01CD010E946920DA01C901BC0148
:10106000CD010E94FA0604C08981805D0E94A0061D
:101070008D81805D0E94A0062C960FB6F894DEBF8D
:101080000FBECDBFCF91DF911F910F91FF90EF90D9
:101090000895DF93CF93CDB7DEB7A3E5B0E0E3E5E6
:1010A000F0E0808189678C93ECE5F0E01082A9E59F
:1010B000B0E0E9E5F0E0808182608C93CF91DF9130
:1010C0000895DF93CF93CDB7DEB781E064E040E0D1
:1010D0000E94430A81E065E040E00E94430A81E00B
:1010E00066E041E00E94430A81E067E040E00E9440
:1010F000430AADE2B0E0EDE2F0E080818F7E8C93B8
:10110000ADE2B0E0EDE2F0E0808180648C93ADE28E
:10111000B0E0EDE2F0E080818F7D8C93ADE2B0E055
:10112000EDE2F0E08081877F8C93CF91DF9108958D
:10113000DF93CF930F92CDB7DEB78983EFE2F0E074
:1011400089818083EEE2F0E080818823DCF7A8E3E8
:10115000B0E0E8E3F0E0808180618C93EFE2F0E0C2
:1011600080810F90CF91DF9108951F920F920FB65B
:101170000F921124DF93CF93CDB7DEB7CF91DF91DC
:101180000F900FBE0F901F9018951F920F920FB6E1
:101190000F921124DF93CF93CDB7DEB7CF91DF91BC
:1011A0000F900FBE0F901F901895DF93CF93CDB780
:1011B000DEB72A970FB6F894DEBF0FBECDBF8A8385
:1011C000AFE5B0E0EFE5F0E0808180688C938A8144
:1011D000282F30E03A87298789859A8581309105C3
:1011E00009F477C029853A852230310509F4DDC03C
:1011F00089859A85009709F006C1ABE5B0E0EBE57B
:10120000F0E080818F7B8C9384E089838981282F13
:1012100030E038872F838F81988584309105A1F144
:101220002F8138852530310534F48F8198858130C0
:10123000910561F046C02F81388527303105A9F02E
:101240008F8198858A30910571F13BC0A5E5B0E0AA
:10125000E5E5F0E0808181608C93A5E5B0E0E5E50F
:10126000F0E080818D7F8C932CC0A5E5B0E0E5E5B2
:10127000F0E0808181608C93A5E5B0E0E5E5F0E0E9
:10128000808182608C931DC0A5E5B0E0E5E5F0E0CB
:1012900080818E7F8C93A5E5B0E0E5E5F0E080816C
:1012A00082608C930EC0A5E5B0E0E5E5F0E08081BA
:1012B0008E7F8C93A5E5B0E0E5E5F0E080818D7F41
:1012C0008C93ABE5B0E0EBE5F0E0808180648C933B
:1012D0009AC0ABE5B0E0EBE5F0E080818F778C93CE
:1012E00081E089838981282F30E03E832D838D81A1
:1012F0009E8184309105A1F12D813E8125303105FB
:1013000034F48D819E818130910561F046C02D813C
:101310003E8127303105A9F08D819E818A3091056B
:1013200071F13BC0A5E5B0E0E5E5F0E080818460C7
:101330008C93A5E5B0E0E5E5F0E08081877F8C93B4
:101340002CC0A5E5B0E0E5E5F0E0808184608C93F9
:10135000A5E5B0E0E5E5F0E0808188608C931DC0F4
:10136000A5E5B0E0E5E5F0E080818B7F8C93A5E515
:10137000B0E0E5E5F0E0808188608C930EC0A5E5E3
:10138000B0E0E5E5F0E080818B7F8C93A5E5B0E0EF
:10139000E5E5F0E08081877F8C93ABE5B0E0EBE59D
:1013A000F0E0808180688C932EC0ABE5B0E0EBE587
:1013B000F0E080818F7D8C9387E089838981282F5D
:1013C00030E03C832B838B819C818430910569F0D4
:1013D0002B813C812730310579F4A4E5B0E0E4E5C8
:1013E000F0E0808180648C9307C0A4E5B0E0E4E580
:1013F000F0E080818F7B8C93ABE5B0E0EBE5F0E033
:10140000808180628C932A960FB6F894DEBF0FBE5F
:10141000CDBFCF91DF910895DF93CF9300D00F928E
:10142000CDB7DEB789838981282F30E03B832A83BB
:101430008A819B818130910589F02A813B8122300C
:101440003105A1F08A819B810097B9F4ABE5B0E04A
:10145000EBE5F0E080818F7B8C930FC0ABE5B0E0D3
:10146000EBE5F0E080818F778C9307C0ABE5B0E0CF
:10147000EBE5F0E080818F7D8C930F900F900F90C3
:10148000CF91DF910895DF93CF9300D000D00F92DA
:10149000CDB7DEB789836A834B838981843008F0B6
:1014A000E4C08A81883008F0E0C08981282F30E0CC
:1014B0003D832C838C819D818130910509F447C047
:1014C0002C813D81223031052CF48C819D81009747
:1014D00071F0CBC02C813D812230310509F467C009
:1014E0008C819D818330910509F491C0BEC08B81B0
:1014F0008823A9F4AAE3B0E0EAE3F0E08081482F72
:101500008A81282F30E081E090E0022E02C0880F0F
:10151000991F0A94E2F7809584238C93A6C08B814F
:10152000813009F0A2C0AAE3B0E0EAE3F0E08081F4
:10153000482F8A81282F30E081E090E0022E02C0FF
:10154000880F991F0A94E2F7842B8C938EC08B81AD
:101550008823A9F4A7E3B0E0E7E3F0E08081482F17
:101560008A81282F30E081E090E0022E02C0880FAF
:10157000991F0A94E2F7809584238C9376C08B811F
:10158000813009F072C0A7E3B0E0E7E3F0E08081CA
:10159000482F8A81282F30E081E090E0022E02C09F
:1015A000880F991F0A94E2F7842B8C935EC08B817D
:1015B0008823A9F4A4E3B0E0E4E3F0E08081482FBD
:1015C0008A81282F30E081E090E0022E02C0880F4F
:1015D000991F0A94E2F7809584238C9346C08B81EF
:1015E000813009F042C0A4E3B0E0E4E3F0E08081A0
:1015F000482F8A81282F30E081E090E0022E02C03F
:10160000880F991F0A94E2F7842B8C932EC08B814C
:101610008823A9F4A1E3B0E0E1E3F0E08081482F62
:101620008A81282F30E081E090E0022E02C0880FEE
:10163000991F0A94E2F7809584238C9316C08B81BE
:10164000813099F4A1E3B0E0E1E3F0E08081482F3C
:101650008A81282F30E081E090E0022E02C0880FBE
:10166000991F0A94E2F7842B8C930F900F900F90A0
:101670000F900F90CF91DF910895DF93CF9300D01B
:1016800000D00F92CDB7DEB789836A834B838981FF
:10169000843008F0E4C08A81883008F0E0C0898195
:1016A000282F30E03D832C838C819D8181309105F2
:1016B00009F447C02C813D81223031052CF48C8106
:1016C0009D81009771F0CBC02C813D812230310586
:1016D00009F467C08C819D818330910509F491C024
:1016E000BEC08B818823A9F4ABE3B0E0EBE3F0E06C
:1016F0008081482F8A81282F30E081E090E0022EFF
:1017000002C0880F991F0A94E2F7809584238C9376
:10171000A6C08B81813009F0A2C0ABE3B0E0EBE35F
:10172000F0E08081482F8A81282F30E081E090E02E
:10173000022E02C0880F991F0A94E2F7842B8C9323
:101740008EC08B818823A9F4A8E3B0E0E8E3F0E041
:101750008081482F8A81282F30E081E090E0022E9E
:1017600002C0880F991F0A94E2F7809584238C9316
:1017700076C08B81813009F072C0A8E3B0E0E8E365
:10178000F0E08081482F8A81282F30E081E090E0CE
:10179000022E02C0880F991F0A94E2F7842B8C93C3
:1017A0005EC08B818823A9F4A5E3B0E0E5E3F0E017
:1017B0008081482F8A81282F30E081E090E0022E3E
:1017C00002C0880F991F0A94E2F7809584238C93B6
:1017D00046C08B81813009F042C0A5E3B0E0E5E36B
:1017E000F0E08081482F8A81282F30E081E090E06E
:1017F000022E02C0880F991F0A94E2F7842B8C9363
:101800002EC08B818823A9F4A2E3B0E0E2E3F0E0EC
:101810008081482F8A81282F30E081E090E0022EDD
:1018200002C0880F991F0A94E2F7809584238C9355
:1018300016C08B81813099F4A2E3B0E0E2E3F0E0DE
:101840008081482F8A81282F30E081E090E0022EAD
:1018500002C0880F991F0A94E2F7842B8C930F9093
:101860000F900F900F900F90CF91DF910895DF931D
:10187000CF9300D000D00F92CDB7DEB789836A83B3
:101880008981843018F48A81883018F022E02D8311
:101890006EC08981482F50E05C834B838B819C8193
:1018A0008130910549F12B813C812230310534F49E
:1018B0004B815C814115510561F057C08B819C8142
:1018C0008230910561F12B813C8123303105D1F1CA
:1018D0004CC0E9E3F0E08081282F30E08A81882F36
:1018E00090E0A90102C0559547958A95E2F7CA0193
:1018F000582F51705D833BC0E6E3F0E08081282FD4
:1019000030E08A81882F90E0A90102C05595479563
:101910008A95E2F7CA01582F51705D8328C0E3E32E
:10192000F0E08081282F30E08A81882F90E0A901A3
:1019300002C0559547958A95E2F7CA01582F517014
:101940005D8315C0E0E3F0E08081282F30E08A81DC
:10195000882F90E0A90102C0559547958A95E2F736
:10196000CA01582F51705D8302C082E08D838D8142
:101970000F900F900F900F900F90CF91DF910895DF
:10198000DF93CF9300D000D0CDB7DEB789836A83D1
:101990008981843090F58981282F30E03C832B8326
:1019A0008B819C8181309105D1F02B813C8122304B
:1019B00031052CF48B819C81009761F01EC02B8136
:1019C0003C812230310581F08B819C8183309105EF
:1019D00081F013C0EAE3F0E08A8180830EC0E7E380
:1019E000F0E08A81808309C0E4E3F0E08A818083AB
:1019F00004C0E1E3F0E08A8180830F900F900F90A4
:101A00000F90CF91DF910895DF93CF9300D000D056
:101A1000CDB7DEB789836A838981282F30E03C8384
:101A20002B838B819C8181309105D1F02B813C816E
:101A3000223031052CF48B819C81009761F01EC00F
:101A40002B813C812230310581F08B819C81833058
:101A5000910581F013C0EBE3F0E08A8180830EC032
:101A6000E8E3F0E08A81808309C0E5E3F0E08A8161
:101A7000808304C0E2E3F0E08A8180830F900F90BE
:101A80000F900F90CF91DF910895DF93CF9300D007
:101A9000CDB7DEB788E690E09A838983A7E2B0E00D
:101AA000E7E2F0E09081E981FA818081892B8C93D3
:101AB000A7E2B0E0E7E2F0E09081E981FA8181817C
:101AC000892B8C93A7E2B0E0E7E2F0E09081E98116
:101AD000FA818281892B8C93A6E2B0E0E6E2F0E005
:101AE000808180688C93A6E2B0E0E6E2F0E090812D
:101AF000E981FA818381892B8C93A6E2B0E0E6E24A
:101B0000F0E09081E981FA818481892B8C93A6E2AF
:101B1000B0E0E6E2F0E09081E981FA818381892BEF
:101B20008C93E981FA818381883039F4AFE5B0E0A4
:101B3000EFE5F0E0808180688C930F900F90CF915B
:101B4000DF910895DF93CF9300D0CDB7DEB78DE658
:101B500090E09A838983A7E2B0E0E7E2F0E0908129
:101B6000E981FA818081892B8C93A7E2B0E0E7E2DA
:101B7000F0E09081E981FA818181892B8C93A7E241
:101B8000B0E0E7E2F0E09081E981FA818281892B7F
:101B90008C93A6E2B0E0E6E2F0E0808180688C936E
:101BA000A6E2B0E0E6E2F0E09081E981FA8183818B
:101BB000892B8C93A6E2B0E0E6E2F0E09081E98127
:101BC000FA818481892B8C93A6E2B0E0E6E2F0E012
:101BD0009081E981FA818381892B8C93E981FA8153
:101BE0008381883039F4AFE5B0E0EFE5F0E0808143
:101BF00080688C930F900F90CF91DF910895DF93C1
:101C0000CF9300D0CDB7DEB782E790E09A83898387
:101C1000A7E2B0E0E7E2F0E09081E981FA8180811B
:101C2000892B8C93A7E2B0E0E7E2F0E09081E981B4
:101C3000FA818181892B8C93A7E2B0E0E7E2F0E0A2
:101C40009081E981FA818281892B8C93A6E2B0E0B0
:101C5000E6E2F0E0808180688C93A6E2B0E0E6E204
:101C6000F0E09081E981FA818381892B8C93A6E24F
:101C7000B0E0E6E2F0E09081E981FA818481892B8D
:101C80008C93A6E2B0E0E6E2F0E09081E981FA818F
:101C90008381892B8C93E981FA818381883039F49F
:101CA000AFE5B0E0EFE5F0E0808180688C930F90C5
:101CB0000F90CF91DF910895DF93CF9300D000D0A4
:101CC0000F92CDB7DEB78D831C821B8288E690E031
:101CD0009A838983A6E2B0E0E6E2F0E080818F7724
:101CE0008C93A7E2B0E0E7E2F0E08081807E8C9305
:101CF000A7E2B0E0E7E2F0E090818D81892B8C9340
:101D0000A6E2B0E0E6E2F0E0808180688C930E9479
:101D1000E50EE6E2F0E0808182958F70882F90E0FA
:101D2000817090700097A9F3A6E2B0E0E6E2F0E0DF
:101D3000808180618C93E981FA8181818032B1F464
:101D4000E4E2F0E08081882F90E09C838B83E5E2E1
:101D5000F0E08081882F90E0982F88279C018B816C
:101D60009C81822B932B9C838B831AC0E981FA81FF
:101D700081818823A9F4E4E2F0E08081882F90E05B
:101D80009C838B83E5E2F0E08081882F90E0982FA0
:101D900088279C018B819C81822B932B9C838B8336
:101DA0008B819C810F900F900F900F900F90CF918F
:101DB000DF910895DF93CF93CDB7DEB78091900088
:101DC00090919100CF91DF910895DF93CF93CDB79C
:101DD000DEB7A6E2B0E0E6E2F0E0808180648C93BA
:101DE000CF91DF9108951F920F920FB60F92112499
:101DF0002F933F938F939F93EF93FF93DF93CF9313
:101E000000D0CDB7DEB788E690E09A838983E98178
:101E1000FA818181803261F5E5E2F0E08081882FEE
:101E200090E0909391008093900080919000909129
:101E30009100382F2227E4E2F0E08081882F90E0A3
:101E4000822B932B9093910080939000809190002F
:101E5000909191000024880F991F001C880F991FF2
:101E6000001C892F902D90939100809390001FC0AB
:101E7000E981FA8181818823D1F4E5E2F0E0808173
:101E8000882F90E090939100809390008091900033
:101E900090919100382F2227E4E2F0E08081882F92
:101EA00090E0822B932B90939100809390000F9061
:101EB0000F90CF91DF91FF91EF919F918F913F9183
:101EC0002F910F900FBE0F901F901895DF93CF9317
:101ED0000F92CDB7DEB7898382E06FEF0E94C00C0E
:101EE0008981813021F582E061E041E00E943D0B73
:101EF00082E062E041E00E943D0B82E063E041E06D
:101F00000E943D0B82E064E041E00E943D0B82E0D4
:101F100065E041E00E943D0B82E066E041E00E9406
:101F20003D0B82E067E040E00E943D0B26C08981C6
:101F3000823019F582E061E040E00E943D0B82E0D2
:101F400062E040E00E943D0B82E063E040E00E94DE
:101F50003D0B82E064E040E00E943D0B82E065E0E2
:101F600040E00E943D0B82E066E040E00E943D0BB5
:101F700082E067E041E00E943D0B0F90CF91DF913E
:101F80000895DF93CF93CDB7DEB72D970FB6F894B2
:101F9000DEBF0FBECDBF89834A835B836C837D83A5
:101FA0008981813009F001C28A819B81AC81BD8128
:101FB0008E839F83A887B9878E819F81A885B985E5
:101FC00084309105A105B10509F403C18E819F817B
:101FD000A885B98585309105A105B10548F58E81A3
:101FE0009F81A885B98581309105A105B10509F4C6
:101FF00080C08E819F81A885B98581309105A1051A
:10200000B10508F452C08E819F81A885B9858230C0
:102010009105A105B10509F494C08E819F81A88521
:10202000B98583309105A105B10509F4AEC0A9C3F6
:102030008E819F81A885B98587309105A105B1055D
:1020400009F43BC18E819F81A885B98588309105AF
:10205000A105B105A8F48E819F81A885B985853039
:102060009105A105B10509F4D8C08E819F81A8858D
:10207000B98586309105A105B10509F4F6C081C383
:102080008E819F81A885B98588309105A105B1050C
:1020900009F43BC18E819F81A885B985893091055E
:1020A000A105B10509F459C16CC382E061E041E0CA
:1020B0000E943D0B82E062E041E00E943D0B82E025
:1020C00063E041E00E943D0B82E064E041E00E9459
:1020D0003D0B82E065E041E00E943D0B82E066E05E
:1020E00041E00E943D0B82E067E040E00E943D0B32
:1020F00048C382E066E00E94040D82E061E040E0B7
:102100000E943D0B82E062E041E00E943D0B82E0D4
:1021100063E041E00E943D0B82E064E040E00E9409
:102120003D0B82E065E040E00E943D0B82E066E00E
:1021300040E00E943D0B82E067E040E00E943D0BE2
:1021400020C382E061E041E00E943D0B82E062E05A
:1021500041E00E943D0B82E063E040E00E943D0BC5
:1021600082E064E041E00E943D0B82E065E041E0F6
:102170000E943D0B82E066E040E00E943D0B82E061
:1021800067E041E00E943D0BFCC282E061E041E07B
:102190000E943D0B82E062E041E00E943D0B82E044
:1021A00063E041E00E943D0B82E064E041E00E9478
:1021B0003D0B82E065E040E00E943D0B82E066E07E
:1021C00040E00E943D0B82E067E041E00E943D0B51
:1021D000D8C282E061E040E00E943D0B82E062E014
:1021E00041E00E943D0B82E063E041E00E943D0B34
:1021F00082E064E040E00E943D0B82E065E040E068
:102200000E943D0B82E066E041E00E943D0B82E0CF
:1022100067E041E00E943D0BB4C282E06DE60E949F
:10222000040D82E061E041E00E943D0B82E062E04B
:1022300040E00E943D0B82E063E041E00E943D0BE4
:1022400082E064E041E00E943D0B82E065E040E016
:102250000E943D0B82E066E041E00E943D0B82E07F
:1022600067E041E00E943D0B8CC282E06DE70E9476
:10227000040D82E061E041E00E943D0B82E062E0FB
:1022800040E00E943D0B82E063E041E00E943D0B94
:1022900082E064E041E00E943D0B82E065E041E0C5
:1022A0000E943D0B82E066E041E00E943D0B82E02F
:1022B00067E041E00E943D0B64C282E067E00E945B
:1022C000040D82E061E041E00E943D0B82E062E0AB
:1022D00041E00E943D0B82E063E041E00E943D0B43
:1022E00082E064E040E00E943D0B82E065E040E077
:1022F0000E943D0B82E066E040E00E943D0B82E0E0
:1023000067E040E00E943D0B3CC282E06FE70E9424
:10231000040D82E061E041E00E943D0B82E062E05A
:1023200041E00E943D0B82E063E041E00E943D0BF2
:1023300082E064E041E00E943D0B82E065E041E024
:102340000E943D0B82E066E041E00E943D0B82E08E
:1023500067E041E00E943D0B14C282E06FE60E94FC
:10236000040D82E061E041E00E943D0B82E062E00A
:1023700041E00E943D0B82E063E041E00E943D0BA2
:1023800082E064E041E00E943D0B82E065E040E0D5
:102390000E943D0B82E066E041E00E943D0B82E03E
:1023A00067E041E00E943D0BECC18981823009F079
:1023B000E8C18A819B81AC81BD818A879B87AC877C
:1023C000BD878A859B85AC85BD8584309105A10537
:1023D000B10509F4FFC08A859B85AC85BD85853034
:1023E0009105A105B10548F58A859B85AC85BD851C
:1023F00081309105A105B10509F480C08A859B85CE
:10240000AC85BD8581309105A105B10508F452C0A8
:102410008A859B85AC85BD8582309105A105B10576
:1024200009F490C08A859B85AC85BD858330910574
:10243000A105B10509F4AAC0A4C18A859B85AC8514
:10244000BD8587309105A105B10509F42FC18A85A5
:102450009B85AC85BD8588309105A105B105A8F4A3
:102460008A859B85AC85BD8585309105A105B10523
:1024700009F4D4C08A859B85AC85BD8586309105DD
:10248000A105B10509F4EEC07CC18A859B85AC85A8
:10249000BD8588309105A105B10509F42BC18A8558
:1024A0009B85AC85BD8589309105A105B10509F4F1
:1024B00045C167C182E061E040E00E943D0B82E0DF
:1024C00062E040E00E943D0B82E063E040E00E9459
:1024D0003D0B82E064E040E00E943D0B82E065E05D
:1024E00040E00E943D0B82E066E040E00E943D0B30
:1024F00082E067E041E00E943D0B43C182E061E081
:1025000041E00E943D0B82E062E040E00E943D0B12
:1025100082E063E040E00E943D0B82E064E041E045
:102520000E943D0B82E065E041E00E943D0B82E0AD
:1025300066E041E00E943D0B82E067E041E00E94DE
:102540003D0B1FC182E061E040E00E943D0B82E054
:1025500062E040E00E943D0B82E063E041E00E94C7
:102560003D0B82E064E040E00E943D0B82E065E0CC
:1025700040E00E943D0B82E066E041E00E943D0B9E
:1025800082E067E040E00E943D0BFBC082E061E03A
:1025900040E00E943D0B82E062E040E00E943D0B83
:1025A00082E063E040E00E943D0B82E064E040E0B6
:1025B0000E943D0B82E065E041E00E943D0B82E01D
:1025C00066E041E00E943D0B82E067E040E00E944F
:1025D0003D0BD7C082E061E041E00E943D0B82E00C
:1025E00062E040E00E943D0B82E063E040E00E9438
:1025F0003D0B82E064E041E00E943D0B82E065E03B
:1026000041E00E943D0B82E066E040E00E943D0B0D
:1026100082E067E040E00E943D0BB3C082E061E0F1
:1026200040E00E943D0B82E062E041E00E943D0BF1
:1026300082E063E040E00E943D0B82E064E040E025
:102640000E943D0B82E065E041E00E943D0B82E08C
:1026500066E040E00E943D0B82E067E040E00E94BF
:102660003D0B8FC082E061E040E00E943D0B82E0C4
:1026700062E041E00E943D0B82E063E040E00E94A6
:102680003D0B82E064E040E00E943D0B82E065E0AB
:1026900040E00E943D0B82E066E040E00E943D0B7E
:1026A00082E067E040E00E943D0B6BC082E061E0A9
:1026B00040E00E943D0B82E062E040E00E943D0B62
:1026C00082E063E040E00E943D0B82E064E041E094
:1026D0000E943D0B82E065E041E00E943D0B82E0FC
:1026E00066E041E00E943D0B82E067E041E00E942D
:1026F0003D0B47C082E061E040E00E943D0B82E07C
:1027000062E040E00E943D0B82E063E040E00E9416
:102710003D0B82E064E040E00E943D0B82E065E01A
:1027200040E00E943D0B82E066E040E00E943D0BED
:1027300082E067E040E00E943D0B23C082E061E060
:1027400040E00E943D0B82E062E040E00E943D0BD1
:1027500082E063E040E00E943D0B82E064E040E004
:102760000E943D0B82E065E041E00E943D0B82E06B
:1027700066E040E00E943D0B82E067E040E00E949E
:102780003D0B2D960FB6F894DEBF0FBECDBFCF9197
:10279000DF910895DF93CF930F92CDB7DEB7898392
:1027A00082E06FEF0E94C00C8981813029F482E0C1
:1027B0006FE30E94040D07C08981823021F482E01A
:1027C00060E40E94040D0F90CF91DF910895DF9394
:1027D000CF9300D000D000D0CDB7DEB789836A8315
:1027E0008981813009F07EC08A81282F30E03E83C4
:1027F0002D838D819E818430910509F455C02D81F2
:102800003E8125303105DCF48D819E81813091053A
:1028100009F43BC02D813E81223031052CF48D819D
:102820009E81009769F1DFC02D813E812230310504
:1028300089F18D819E818330910589F1D4C02D81EC
:102840003E812730310509F43EC08D819E8188305C
:1028500091055CF42D813E812530310551F18D814A
:102860009E818630910551F1BEC02D813E81283078
:10287000310571F18D819E818930910571F1B3C06F
:1028800082E06FE30E94040DAEC082E066E00E9429
:10289000040DA9C082E06BE50E94040DA4C082E093
:1028A0006FE40E94040D9FC082E066E60E94040D62
:1028B0009AC082E06DE60E94040D95C082E06DE74B
:1028C0000E94040D90C082E067E00E94040D8BC05E
:1028D00082E06FE70E94040D86C082E06FE60E94EE
:1028E000040D81C08981823009F07DC08A81282F42
:1028F00030E03C832B838B819C818430910509F4EB
:1029000055C02B813C8125303105DCF48B819C81C5
:102910008130910509F43BC02B813C812230310587
:102920002CF48B819C81009769F15DC02B813C81E7
:102930002230310589F18B819C818330910589F1A9
:1029400052C02B813C812730310509F43EC08B8178
:102950009C81883091055CF42B813C8125303105C8
:1029600051F18B819C818630910551F13CC02B81C6
:102970003C812830310571F18B819C818930910532
:1029800071F131C082E060E40E94040D2CC082E04D
:1029900069E70E94040D27C082E064E20E94040DF2
:1029A00022C082E060E30E94040D1DC082E069E164
:1029B0000E94040D18C082E062E10E94040D13C061
:1029C00082E062E00E94040D0EC082E068E70E948F
:1029D000040D09C082E060E00E94040D04C082E0A2
:1029E00060E10E94040D26960FB6F894DEBF0FBE7C
:1029F000CDBFCF91DF910895DF93CF93CDB7DEB7F1
:102A00002F970FB6F894DEBF0FBECDBF8F8783E040
:102A100064E040E00E943D0B83E065E040E00E94FE
:102A20003D0B82E06F850E94040D83E066E041E08B
:102A30000E943D0B80E090E0A0E0B0E48B879C8793
:102A4000AD87BE876B857C858D859E8520E030E0D7
:102A50004AEF54E40E941F02DC01CB018F83988768
:102A6000A987BA876F81788589859A8520E030E0CB
:102A700040E85FE30E94250488232CF481E090E085
:102A80009E838D833FC06F81788589859A8520E0FC
:102A90003FEF4FE757E40E94C50318164CF56B85CE
:102AA0007C858D859E8520E030E040E251E40E94E7
:102AB0001F02DC01CB01BC01CD010E944900DC01F9
:102AC000CB019E838D830FC088EC90E09C838B8329
:102AD0008B819C810197F1F79C838B838D819E81F3
:102AE00001979E838D838D819E81009769F714C025
:102AF0006F81788589859A850E944900DC01CB0128
:102B00009E838D838D819E819A83898389819A8119
:102B10000197F1F79A83898383E066E040E00E94A1
:102B20003D0B2F960FB6F894DEBF0FBECDBFCF91F1
:102B3000DF910895DF93CF93CDB7DEB7AA970FB695
:102B4000F894DEBF0FBECDBF83E064E041E00E9499
:102B5000430A83E065E041E00E94430A83E066E0C7
:102B600041E00E94430A82E06FEF0E94C00C8CE3B8
:102B70000E94FC1480E090E0A0E8BFE38FA398A738
:102B8000A9A7BAA76FA178A589A59AA520E030E0EA
:102B90004AEF54E40E941F02DC01CB018BA39CA3EB
:102BA000ADA3BEA36BA17CA18DA19EA120E030E0CE
:102BB00040E85FE30E94250488232CF481E090E044
:102BC0009AA389A33FC06BA17CA18DA19EA120E007
:102BD0003FEF4FE757E40E94C50318164CF56FA16D
:102BE00078A589A59AA520E030E040E251E40E9452
:102BF0001F02DC01CB01BC01CD010E944900DC01B8
:102C0000CB019AA389A30FC088EC90E098A38F8F83
:102C10008F8D98A10197F1F798A38F8F89A19AA121
:102C200001979AA389A389A19AA1009769F714C073
:102C30006BA17CA18DA19EA10E944900DC01CB016A
:102C40009AA389A389A19AA19E8F8D8F8D8D9E8D28
:102C50000197F1F79E8F8D8F8FE00E94FC1480E02A
:102C600090E0A0E8BFE3898F9A8FAB8FBC8F698D0E
:102C70007A8D8B8D9C8D20E030E04AEF54E40E94E9
:102C80001F02DC01CB018D8B9E8BAF8BB88F6D89C2
:102C90007E898F89988D20E030E040E85FE30E94D4
:102CA000250488232CF481E090E09C8B8B8B3FC023
:102CB0006D897E898F89988D20E03FEF4FE757E43B
:102CC0000E94C50318164CF5698D7A8D8B8D9C8DED
:102CD00020E030E040E251E40E941F02DC01CB0121
:102CE000BC01CD010E944900DC01CB019C8B8B8B88
:102CF0000FC088EC90E09A8B898B89899A8901971B
:102D0000F1F79A8B898B8B899C8901979C8B8B8B94
:102D10008B899C89009769F714C06D897E898F899A
:102D2000988D0E944900DC01CB019C8B8B8B8B8999
:102D30009C89988B8F878F8598890197F1F7988B5D
:102D40008F8781E00E94FC1480E090E0A0E8BFE360
:102D50008B879C87AD87BE876B857C858D859E859F
:102D600020E030E04AEF54E40E941F02DC01CB0176
:102D70008F839887A987BA876F81788589859A8597
:102D800020E030E040E85FE30E94250488232CF433
:102D900081E090E09E838D833FC06F817885898537
:102DA0009A8520E03FEF4FE757E40E94C5031816CD
:102DB0004CF56B857C858D859E8520E030E040E27A
:102DC00051E40E941F02DC01CB01BC01CD010E9435
:102DD0004900DC01CB019E838D830FC088EC90E01D
:102DE0009C838B838B819C810197F1F79C838B83E0
:102DF0008D819E8101979E838D838D819E81009719
:102E000069F714C06F81788589859A850E94490089
:102E1000DC01CB019E838D838D819E819A83898382
:102E200089819A810197F1F79A838983AA960FB6CF
:102E3000F894DEBF0FBECDBFCF91DF910895DF9331
:102E4000CF93CDB7DEB72F970FB6F894DEBF0FBE86
:102E5000CDBF8F8783E065E040E00E943D0B83E0BB
:102E600064E041E00E943D0B82E06F850E94040D0A
:102E700083E066E041E00E943D0B80E090E0A0E04E
:102E8000B0E48B879C87AD87BE876B857C858D85FD
:102E90009E8520E030E04AEF54E40E941F02DC01EE
:102EA000CB018F839887A987BA876F8178858985B9
:102EB0009A8520E030E040E85FE30E942504882303
:102EC0002CF481E090E09E838D833FC06F817885F4
:102ED00089859A8520E03FEF4FE757E40E94C503BC
:102EE00018164CF56B857C858D859E8520E030E03D
:102EF00040E251E40E941F02DC01CB01BC01CD0184
:102F00000E944900DC01CB019E838D830FC088ECB9
:102F100090E09C838B838B819C810197F1F79C834C
:102F20008B838D819E8101979E838D838D819E8170
:102F3000009769F714C06F81788589859A850E940A
:102F40004900DC01CB019E838D838D819E819A8314
:102F5000898389819A810197F1F79A83898383E034
:102F600066E040E00E943D0B2F960FB6F894DEBF5E
:102F70000FBECDBFCF91DF910895DF93CF9300D0E7
:102F8000CDB7DEB79A8389830BC0E981FA812081AE
:102F900089819A8101969A838983822F0E941F17C3
:102FA000E981FA818081882381F70F900F90CF917A
:102FB000DF910895DF93CF93CDB7DEB7E5970FB6D6
:102FC000F894DEBF0FBECDBF8DAB83E064E040E080
:102FD0000E943D0B83E065E040E00E943D0B8DA91F
:102FE00082958F70982F917082E064E0492F0E9443
:102FF0003D0B8DA9829586958770982F917082E000
:1030000065E0492F0E943D0B8DA982958695869596
:103010008370982F917082E066E0492F0E943D0BEB
:103020008DA9982F991F9927991F82E067E0492F52
:103030000E943D0B83E066E041E00E943D0B80E092
:1030400090E0A0E0B0E489AB9AABABABBCAB69A9B4
:103050007AA98BA99CA920E030E04AEF54E40E94B1
:103060001F02DC01CB018DA79EA7AFA7B8AB6DA552
:103070007EA58FA598A920E030E040E85FE30E949C
:10308000250488232CF481E090E09CA78BA73FC007
:103090006DA57EA58FA598A920E03FEF4FE757E4E7
:1030A0000E94C50318164CF569A97AA98BA99CA999
:1030B00020E030E040E251E40E941F02DC01CB013D
:1030C000BC01CD010E944900DC01CB019CA78BA76C
:1030D0000FC088EC90E09AA789A789A59AA50197C7
:1030E000F1F79AA789A78BA59CA501979CA78BA709
:1030F0008BA59CA5009769F714C06DA57EA58FA52B
:1031000098A90E944900DC01CB019CA78BA78BA545
:103110009CA598A78FA38FA198A50197F1F798A7D1
:103120008FA383E066E040E00E943D0B80E090E0EA
:10313000A8E4B3E48BA39CA3ADA3BEA36BA17CA125
:103140008DA19EA12BEA3AEA4AE250E40E941F02B6
:10315000DC01CB018F8F98A3A9A3BAA36F8D78A1AF
:1031600089A19AA120E030E040E85FE30E942504B5
:1031700088231CF481E08E8F91C06F8D78A189A186
:103180009AA120E030E04FE753E40E94C5031816EF
:103190000CF07BC06BA17CA18DA19EA120E030E052
:1031A0004AE754E40E941903DC01CB018A8F9B8F0C
:1031B000AC8FBD8F6A8D7B8D8C8D9D8D20E030E036
:1031C0004AEF54E40E941F02DC01CB018E8B9F8BDF
:1031D000A88FB98F6E897F89888D998D20E030E026
:1031E00040E85FE30E94250488232CF481E090E00E
:1031F0009D8B8C8B3FC06E897F89888D998D20E057
:103200003FEF4FE757E40E94C50318164CF56A8D4F
:103210007B8D8C8D9D8D20E030E040E251E40E945A
:103220001F02DC01CB01BC01CD010E944900DC0181
:10323000CB019D8B8C8B0FC088EC90E09B8B8A8B95
:103240008A899B890197F1F79B8B8A8B8C899D8951
:1032500001979D8B8C8B8C899D89009769F724C081
:103260006E897F89888D998D0E944900DC01CB0190
:103270009D8B8C8B8C899D89998B888B888999896A
:103280000197F1F7998B888B0FC06F8D78A189A179
:103290009AA10E944900DC01CB018E8F8E8D8F8711
:1032A0008F858A95F1F78F8783E064E040E00E9484
:1032B0003D0B83E065E040E00E943D0B8DA9982F17
:1032C000917082E064E0492F0E943D0B8DA98695A4
:1032D000982F917082E065E0492F0E943D0B8DA9E7
:1032E00086958695982F917082E066E0492F0E941E
:1032F0003D0B8DA9869586958695982F917082E0D5
:1033000067E0492F0E943D0B83E066E041E00E94A8
:103310003D0B80E090E0A0E0B0E48B879C87AD8718
:10332000BE876B857C858D859E8520E030E04AEFE9
:1033300054E40E941F02DC01CB018F839887A98788
:10334000BA876F81788589859A8520E030E040E8EA
:103350005FE30E94250488232CF481E090E09E83A3
:103360008D833FC06F81788589859A8520E03FEF06
:103370004FE757E40E94C50318164CF56B857C8512
:103380008D859E8520E030E040E251E40E941F02DE
:10339000DC01CB01BC01CD010E944900DC01CB0165
:1033A0009E838D830FC088EC90E09C838B838B8100
:1033B0009C810197F1F79C838B838D819E8101977E
:1033C0009E838D838D819E81009769F714C06F81E4
:1033D000788589859A850E944900DC01CB019E830E
:1033E0008D838D819E819A83898389819A810197BA
:1033F000F1F79A83898383E066E040E00E943D0B09
:10340000E5960FB6F894DEBF0FBECDBFCF91DF912A
:103410000895DF93CF93CDB7DEB72E970FB6F8940C
:10342000DEBF0FBECDBF83E064E041E00E94430AEF
:1034300083E065E041E00E94430A83E066E041E00A
:103440000E94430A82E064E041E00E94430A82E075
:1034500065E041E00E94430A82E066E041E00E94AC
:10346000430A82E067E041E00E94430A80E090E086
:10347000A0EAB1E48B879C87AD87BE876B857C858E
:103480008D859E8520E030E04AEF54E40E941F02C3
:10349000DC01CB018F839887A987BA876F817885F4
:1034A00089859A8520E030E040E85FE30E942504AA
:1034B00088232CF481E090E09E838D833FC06F8150
:1034C000788589859A8520E03FEF4FE757E40E9491
:1034D000C50318164CF56B857C858D859E8520E08F
:1034E00030E040E251E40E941F02DC01CB01BC014C
:1034F000CD010E944900DC01CB019E838D830FC06A
:1035000088EC90E09C838B838B819C810197F1F701
:103510009C838B838D819E8101979E838D838D817A
:103520009E81009769F714C06F81788589859A8597
:103530000E944900DC01CB019E838D838D819E8199
:103540009A83898389819A810197F1F79A83898384
:1035500083E30E94DA1782E30E94DA1788E20E946E
:10356000DA178CE00E94DA1786E00E94DA1781E011
:103570000E94DA172E960FB6F894DEBF0FBECDBFAD
:10358000CF91DF910895DF93CF93CDB7DEB7E59765
:103590000FB6F894DEBF0FBECDBF8DAB8DA982955F
:1035A0008F70982F917082E064E0492F0E943D0B4C
:1035B0008DA9829586958770982F917082E065E03D
:1035C000492F0E943D0B8DA9829586958695837023
:1035D000982F917082E066E0492F0E943D0B8DA9E3
:1035E000982F991F9927991F82E067E0492F0E9421
:1035F0003D0B83E064E041E00E943D0B83E066E028
:1036000041E00E943D0B80E090E0A0E0B0E489AB97
:103610009AABABABBCAB69A97AA98BA99CA920E0FA
:1036200030E04AEF54E40E941F02DC01CB018DA779
:103630009EA7AFA7B8AB6DA57EA58FA598A920E0E2
:1036400030E040E85FE30E94250488232CF481E009
:1036500090E09CA78BA73FC06DA57EA58FA598A9DC
:1036600020E03FEF4FE757E40E94C50318164CF5E2
:1036700069A97AA98BA99CA920E030E040E251E435
:103680000E941F02DC01CB01BC01CD010E94490058
:10369000DC01CB019CA78BA70FC088EC90E09AA718
:1036A00089A789A59AA50197F1F79AA789A78BA55C
:1036B0009CA501979CA78BA78BA59CA5009769F754
:1036C00014C06DA57EA58FA598A90E944900DC01B4
:1036D000CB019CA78BA78BA59CA598A78FA38FA197
:1036E00098A50197F1F798A78FA383E066E040E0E3
:1036F0000E943D0B80E090E0A8E4B3E48BA39CA380
:10370000ADA3BEA36BA17CA18DA19EA12BEA3AEA39
:103710004AE250E40E941F02DC01CB018F8F98A384
:10372000A9A3BAA36F8D78A189A19AA120E030E066
:1037300040E85FE30E94250488231CF481E08E8F1B
:1037400091C06F8D78A189A19AA120E030E04FE768
:1037500053E40E94C50318160CF07BC06BA17CA13A
:103760008DA19EA120E030E04AE754E40E941903B5
:10377000DC01CB018A8F9B8FAC8FBD8F6A8D7B8DD7
:103780008C8D9D8D20E030E04AEF54E40E941F02B2
:10379000DC01CB018E8B9F8BA88FB98F6E897F89BF
:1037A000888D998D20E030E040E85FE30E94250499
:1037B00088232CF481E090E09D8B8C8B3FC06E8938
:1037C0007F89888D998D20E03FEF4FE757E40E9475
:1037D000C50318164CF56A8D7B8D8C8D9D8D20E070
:1037E00030E040E251E40E941F02DC01CB01BC0149
:1037F000CD010E944900DC01CB019D8B8C8B0FC059
:1038000088EC90E09B8B8A8B8A899B890197F1F7E2
:103810009B8B8A8B8C899D8901979D8B8C8B8C8946
:103820009D89009769F724C06E897F89888D998D5D
:103830000E944900DC01CB019D8B8C8B8C899D897A
:10384000998B888B888999890197F1F7998B888B57
:103850000FC06F8D78A189A19AA10E944900DC0157
:10386000CB018E8F8E8D8F878F858A95F1F78F870D
:103870008DA9982F917082E064E0492F0E943D0B42
:103880008DA98695982F917082E065E0492F0E945E
:103890003D0B8DA986958695982F917082E066E004
:1038A000492F0E943D0B8DA9869586958695982F68
:1038B000917082E067E0492F0E943D0B83E066E053
:1038C00041E00E943D0B80E090E0A0E0B0E48B87F7
:1038D0009C87AD87BE876B857C858D859E8520E026
:1038E00030E04AEF54E40E941F02DC01CB018F83D9
:1038F0009887A987BA876F81788589859A8520E01E
:1039000030E040E85FE30E94250488232CF481E046
:1039100090E09E838D833FC06F81788589859A85ED
:1039200020E03FEF4FE757E40E94C50318164CF51F
:103930006B857C858D859E8520E030E040E251E4FA
:103940000E941F02DC01CB01BC01CD010E94490095
:10395000DC01CB019E838D830FC088EC90E09C83BB
:103960008B838B819C810197F1F79C838B838D8165
:103970009E8101979E838D838D819E81009769F73B
:1039800014C06F81788589859A850E944900DC0181
:10399000CB019E838D838D819E819A8389838981CA
:1039A0009A810197F1F79A83898383E066E040E08A
:1039B0000E943D0BE5960FB6F894DEBF0FBECDBF5B
:1039C000CF91DF910895DF93CF9300D0CDB7DEB7CD
:1039D0009A8389830BC0E981FA81208189819A8148
:1039E00001969A838983822F0E94C31AE981FA8102
:1039F0008081882381F70F900F90CF91DF910895F8
:103A0000EF92FF920F931F93DF93CF93CDB7DEB763
:103A100028970FB6F894DEBF0FBECDBF6D837E83AF
:103A20008F83988781E090E0A0E0B0E089839A835B
:103A3000AB83BC838D819E81AF81B8850097A10542
:103A4000B105D1F580E30E94C31A36C089819A81FD
:103A5000AB81BC812AE030E040E050E0BC01CD0108
:103A60000E944A207B018C018D819E81AF81B885A7
:103A70002AE030E040E050E0BC01CD010E94692026
:103A8000DC01CB018E0D9F1DA01FB11F89839A837E
:103A9000AB83BC838D819E81AF81B8852AE030E005
:103AA00040E050E0BC01CD010E946920DA01C9016B
:103AB0008D839E83AF83B8878D819E81AF81B885CA
:103AC0000097A105B10511F623C089819A81AB81C8
:103AD000BC812AE030E040E050E0BC01CD010E9412
:103AE0006920DC01CB01805D0E94C31A89819A8123
:103AF000AB81BC812AE030E040E050E0BC01CD0168
:103B00000E946920DA01C90189839A83AB83BC834F
:103B100089819A81AB81BC8181309105A105B10574
:103B2000A1F628960FB6F894DEBF0FBECDBFCF9199
:103B3000DF911F910F91FF90EF900895DF93CF9346
:103B400000D0CDB7DEB789836A8380E80E94FC1479
:103B50008981813059F48A818823A9F08A81813151
:103B600090F48A8181580E94FC140DC089818230B2
:103B700051F48A81882339F08A81813120F48A8145
:103B800081540E94FC140F900F90CF91DF91089503
:103B9000DF93CF9300D0CDB7DEB789836A8380E807
:103BA0000E94DA178981813059F48A818823A9F02B
:103BB0008A81813190F48A8181580E94DA170DC080
:103BC0008981823051F48A81882339F08A81813158
:103BD00020F48A8181540E94DA170F900F90CF91C0
:103BE000DF910895DF93CF93CDB7DEB783E060EF29
:103BF0000E94C00C83E06FE70E94040DCF91DF911B
:103C00000895DF93CF93CDB7DEB763970FB6F894DF
:103C1000DEBF0FBECDBF188A00C1A2E3B0E0E2E371
:103C2000F0E08081482F8889882F90E0FC01E558DA
:103C3000FF4F8081282F30E081E090E0022E02C00B
:103C4000880F991F0A94E2F7809584238C938889C2
:103C50008A8B1F86C2C0E0E3F0E08081282F30E02D
:103C60008F85882F90E0FC01E958FF4F8081882FD5
:103C700090E0A90102C0559547958A95E2F7CA01DF
:103C80008170898B80E090E0A0EAB1E48B879C870B
:103C9000AD87BE876B857C858D859E8520E030E075
:103CA0004AEF54E40E941F02DC01CB018F83988706
:103CB000A987BA876F81788589859A8520E030E069
:103CC00040E85FE30E94250488232CF481E090E023
:103CD0009E838D833FC06F81788589859A8520E09A
:103CE0003FEF4FE757E40E94C50318164CF56B856C
:103CF0007C858D859E8520E030E040E251E40E9485
:103D00001F02DC01CB01BC01CD010E944900DC0196
:103D1000CB019E838D830FC088EC90E09C838B83C6
:103D20008B819C810197F1F79C838B838D819E8190
:103D300001979E838D838D819E81009769F714C0C2
:103D40006F81788589859A850E944900DC01CB01C5
:103D50009E838D838D819E819A83898389819A81B7
:103D60000197F1F79A838983E0E3F0E08081282FBF
:103D700030E08F85882F90E0FC01E958FF4F80816B
:103D8000882F90E0A90102C0559547958A95E2F7E2
:103D9000CA018170898B8F858B8B89898823D1F4A7
:103DA0008B89282F30E08A89482F50E0C901880F7D
:103DB000991F820F931F840F951FFC01E258FF4F3C
:103DC000808163960FB6F894DEBF0FBECDBFCF9152
:103DD000DF9108958F858F5F8F878F85843008F4FA
:103DE0003ACFA2E3B0E0E2E3F0E08081482F888997
:103DF000882F90E0FC01E558FF4F8081282F30E0AC
:103E000081E090E0022E02C0880F991F0A94E2F729
:103E1000842B8C9388898F5F888B8889833008F402
:103E2000FCCEF9CEDF93CF93CDB7DEB76D970FB64B
:103E3000F894DEBF0FBECDBF80E060E00E94C00CF2
:103E40000E947D060E94091A80E090E0A8E4B3E495
:103E5000898F9A8FAB8FBC8F698D7A8D8B8D9C8D5E
:103E600020E030E04AEF54E40E941F02DC01CB0165
:103E70008D8B9E8BAF8BB88F6D897E898F89988D46
:103E800020E030E040E85FE30E94250488232CF422
:103E900081E090E09C8B8B8B3FC06D897E898F8900
:103EA000988D20E03FEF4FE757E40E94C5031816B6
:103EB0004CF5698D7A8D8B8D9C8D20E030E040E251
:103EC00051E40E941F02DC01CB01BC01CD010E9424
:103ED0004900DC01CB019C8B8B8B0FC088EC90E000
:103EE0009A8B898B89899A890197F1F79A8B898BAB
:103EF0008B899C8901979C8B8B8B8B899C890097E4
:103F000069F714C06D897E898F89988D0E94490058
:103F1000DC01CB019C8B8B8B8B899C89988B8F8749
:103F20008F8598890197F1F7988B8F871D8E8D8DDE
:103F3000882F90E0E9E3F0E02081FC01EE56FF4F8E
:103F400020838D8D882F90E0FC01EE56FF4F8081FD
:103F5000882F90E0A0E0B0E0BC01CD010E94001DE0
:103F60008CE20E94C31A80E40E94A0068D8D882FE7
:103F700090E0FC01EE56FF4F8081882F90E0A0E09A
:103F8000B0E0BC01CD010E94FA068CE20E94A006BE
:103F90008D8D882F90E0A0E0B0E0BC01CD010E94A3
:103FA000FA068BE30E94A0068D8D8F5F8D8F80E0D7
:103FB00090E0A0E8BFE38B879C87AD87BE876B85C9
:103FC0007C858D859E8520E030E04AEF54E40E9498
:103FD0001F02DC01CB018F839887A987BA876F8185
:103FE000788589859A8520E030E040E85FE30E948B
:103FF000250488232CF481E090E09E838D833FC0CC
:104000006F81788589859A8520E03FEF4FE757E4F7
:104010000E94C50318164CF56B857C858D859E85A1
:1040200020E030E040E251E40E941F02DC01CB01BD
:10403000BC01CD010E944900DC01CB019E838D8330
:104040000FC088EC90E09C838B838B819C810197CF
:10405000F1F79C838B838D819E8101979E838D8355
:104060008D819E81009769F762CF6F817885898500
:104070009A850E944900DC01CB019E838D838D814E
:104080009E819A83898389819A810197F1F79A8326
:1040900089834DCF629FD001739FF001829FE00D15
:1040A000F11D649FE00DF11D929FF00D839FF00DB7
:1040B000749FF00D659FF00D9927729FB00DE11D63
:1040C000F91F639FB00DE11DF91FBD01CF01112440
:1040D0000895A1E21A2EAA1BBB1BFD010DC0AA1F49
:1040E000BB1FEE1FFF1FA217B307E407F50720F061
:1040F000A21BB30BE40BF50B661F771F881F991FDC
:104100001A9469F760957095809590959B01AC0124
:10411000BD01CF0108952F923F924F925F926F920F
:104120007F928F929F92AF92BF92CF92DF92EF9247
:10413000FF920F931F93CF93DF93CDB7DEB7CA1BC8
:10414000DB0B0FB6F894DEBF0FBECDBF09942A88F3
:10415000398848885F846E847D848C849B84AA849B
:10416000B984C884DF80EE80FD800C811B81AA8128
:10417000B981CE0FD11D0FB6F894DEBF0FBECDBFF3
:08418000ED010895F894FFCF52
:1041880000000000000000004000000004400001A2
:104198000004400001000400010203040506313256
:0A41A8003334353637383940302AF9
:00000001FF
